:020000040800F2
:1000000000050020ED010008AD1E0008291D0008B4
:10001000A91E00080503000835280008000000009C
:10002000000000000000000000000000B51E0008F5
:100030000903000800000000B11E0008B91E0008F6
:10004000070200080702000807020008070200086C
:10005000070200080702000807020008070200085C
:10006000070200080702000807020008070200084C
:10007000070200080702000807020008070200083C
:10008000070200080000000007020008070200083D
:10009000070200080702000807020008070200081C
:1000A000D11E000807020008070200080702000826
:1000B00007020008070200080702000807020008FC
:1000C00007020008070200080702000807020008EC
:1000D00007020008070200080702000807020008DC
:1000E00007020008070200080702000807020008CC
:1000F00007020008070200080702000800000000CD
:1001000000000000070200080000000007020008CD
:1001100007020008000000000702000807020008AC
:10012000070200080702000807020008070200088B
:10013000070200080000000000000000070200089D
:10014000070200080702000800000000000000008D
:10015000000000000000000000000000000000009F
:10016000000000000000000000000000070200087E
:10017000070200080000000000000000000000006E
:10018000000000000702000800000000000000005E
:10019000000000000000000000000000000000005F
:1001A000000000000000000007020008070200082D
:1001B000070200080702000807020008000000000C
:1001C000000000000702000800000000000000001E
:1001D0000702000807020008DFF80CD000F07AF8E8
:1001E00000480047592800080005002006488047BD
:1001F00006480047FEE7FEE7FEE7FEE7FEE7FEE70C
:10020000FEE7FEE7FEE7FEE7BD1E0008D901000895
:100210002DE9F05F0546002092469B46884606463B
:10022000814640241BE0284641464746224600F0CE
:1002300041F853465A46C01A914110D31146184608
:10024000224600F028F82D1A67EB01084F46224697
:100250000120002100F01FF817EB00094E41201E7D
:10026000A4F10104DFDC484631462A464346BDE896
:10027000F09FD2B201E000F8012B491EFBD270477B
:100280000022F6E710B513460A4604461946FFF762
:10029000F0FF204610BD202A04DB203A00FA02F1CC
:1002A000002070479140C2F1200320FA03F3194364
:1002B00090407047202A04DB203A21FA02F0002106
:1002C000704721FA02F3D040C2F120029140084366
:1002D000194670471CB50948009009480190054629
:1002E000009C06E0E06840F0010394E807009847AE
:1002F0001034AC42F6D3FFF773FF0000D429000896
:10030000F4290008FEE7000070470000EFF31080BA
:1003100072B600BFFEE70000B0B5044600F0F0F88A
:10032000054640F20400C2F200004068611C18BF9C
:10033000044400BF00F0E4F8401BA042FAD3B0BD73
:100340002DE9F04F83B00E68002E00F0CF8000F151
:10035000200241F2004C009200F13847C4F6000C34
:1003600006224FEAB725604508BF0522052D38BF94
:100370004FEAB722002500274FF0000801920AE05B
:100380000E6808F1010836FA08F207F1020705F1D4
:10039000040500F0AB80012202FA08FE16EA0E09FD
:1003A000EED0D1F804C003220CF0030BABF1010630
:1003B00002FA07F4012E6FEA040A11D88468CE68A5
:1003C00004EA0A04BE4034438460446824EA0E060A
:1003D000CCF3001404FA08F42643466006E000BF9C
:1003E000BBF1030F02D14FF0030B21E0C6688C680C
:1003F00006EA0A06BC402643BBF1020FC66017D1CD
:100400006FF00302009B02EA580605F01C020F245D
:1004100053F806C004FA02FE0C692CEA0E0C04FA2A
:1004200002F242EA0C029A51D1F804C00CF0030B1C
:1004300002680BFA07F302EA0A021A431CF4403F6F
:1004400002609DD041F26003C4F202031A6840F2D8
:10045000004E42F001021A601A68C4F2010E02F066
:1004600001020292029A28F003024FF6084C7244ED
:10047000CFF6FF7C52F80C3005F00C060F24B44088
:10048000A343019C04FA06F6334342F80C30DEF82D
:1004900008204B6842EA090640F20C4CDC0258BFC7
:1004A00022EA0906CEF80860C4F2010CDCF800204C
:1004B0009C0242EA090658BF22EA0906CCF800600D
:1004C000DEF804209C0342EA090658BF22EA090626
:1004D000CEF80460DEF80020DB0342EA090658BFCC
:1004E00022EA0906CEF800604AE700BF03B0BDE883
:1004F000F08F00000069084018BF0120704700001D
:1005000040F2F800C2F200000068704740F20400B8
:1005100040F2F801C2F20000C2F2000140680A682D
:10052000104408607047000080B5032000F08CF88C
:100530000F2000F009F800281CBF012080BD00F04A
:100540002BF8002080BD0000B0B540F20405C2F2D7
:1005500000056968F1B1044640F20C00C2F20000E7
:100560004FF47A720068B2FBF1F1B0FBF1F000F0E9
:100570009BFE01460F2C4FF001000AD8002918BF3E
:10058000B0BD4FF0FF302146002200F031F80020CE
:100590002C60B0BD0120B0BD82B041F25800C4F261
:1005A0000200816841F001018160816801F0010170
:1005B00001910199016841F080510160006800F0EB
:1005C00080500090009802B000F0D6B8002848BFD4
:1005D000704700F01F01012202FA01F11C2202EA19
:1005E000D0004EF20012CEF200028150704700009F
:1005F00010B54EF60C5CCEF2000CDCF80030C3F304
:10060000022E8EF00704042C28BF0424BEF103033D
:100610004FF0FF3E0EFA04F438BF0023A143994087
:100620000EFA03F39A43114300F00F0200F1604306
:100630000901043A03F564436244002848BF02F10B
:100640000C03197010BD00004EF60C51CEF20001E3
:100650000A684FF6FF031A4060F30A2242F08060F6
:1006600040F0FD700860704747F21401C4F20001C9
:1006700051F8142CB0F5007F3CD0002874D1C86E1E
:1006800002F4C06220F48070B2F5806FC8662FD18A
:1006900051F8140C012262F34A2041F8140C40F284
:1006A0000C00C2F200000068322250434DF6836213
:1006B000C4F21B32A0FB0202900C00BF0A68520574
:1006C00011D5421C0FD00A6852050CD558B10A68E2
:1006D000520508D5012806D00A68520503D502281C
:1006E000A0F10400EAD10868400544BF0320704728
:1006F00000207047C86E02F4C06240F48070B2F50A
:10070000806FC866F4D151F8140C012262F34A20BC
:1007100041F8140C40F20C00C2F2000000683222D2
:1007200050434DF68362C4F21B32A0FB0202900CD0
:100730000A68520511D5421C0FD00A6852050CD523
:1007400058B10A68520508D5012806D00A68520532
:1007500003D50228A0F10400EAD10868400544BF8F
:1007600003207047C4E700BF022060F34A2241F82B
:10077000142C00207047000047F20800C4F200006B
:10078000016841F480410160704700002DE9F041AB
:1007900082B00446807841F288060007C4F202065F
:1007A00002D400202FE000BF56F8300C5FEAC008EA
:1007B0000BD456F8300C40F0805046F8300C56F808
:1007C000300C00F080500190019847F20007C4F20D
:1007D0000007386840F480703860FFF791FE0546E6
:1007E0003868C00500F1D680FFF78AFE401B02285A
:1007F000F6D90320B8F1000F05D456F8301C21F0CB
:10080000805146F8301C2168CA0713D18A0719D4D1
:100810004A071FD40A0725D48A062BD44A0631D4A6
:100820000A0637D4CA053DD48A0543D44A0549D4BB
:1008300057E000BF3268636822F003021A43326057
:100840008A07E5D53268A36822F00C021A433260A9
:100850004A07DFD53268E36822F030021A4332607B
:100860000A07D9D53268236922F0C0021A433260E0
:100870008A06D3D53268636922F440621A43326033
:100880004A06CDD53268A36922F440521A43326039
:100890000A06C7D53268E36922F440421A4332603F
:1008A000CA05C1D53268236A22F440321A43326045
:1008B0008A05BBD53268636A22F440221A4332604B
:1008C0004A050ED53268A36A22F440121A43B3F5E2
:1008D000801F326005D156F87C2C42F4801246F815
:1008E0007C2C0A050ED53268E36A22F440021A43D2
:1008F000B3F5800F326005D156F87C2C42F480129B
:1009000046F87C2CCA040ED53268236B22F0407264
:100910001A43B3F1807F326005D156F87C2C42F443
:10092000801246F87C2C8A040ED53268636B22F064
:1009300040621A43B3F1006F326005D156F87C2C47
:1009400042F4801246F87C2C4A040ED53268A36B20
:1009500022F040621A43B3F1006F326005D156F8BD
:100960007C2C42F4801246F87C2C09040ED53168A8
:10097000E26B21F040511143B2F1805F316005D14B
:1009800056F87C1C41F4803146F87C1C02B0BDE86E
:10099000F08100BFB06810F4407010D0216C884224
:1009A0000BD0B068B16820F4407041F48031B16080
:1009B000B16821F48031B160B060C0070CD1B0687B
:1009C000216C20F440700843B0600020B8F1000FA3
:1009D0003FF519AF11E700BFFFF792FD054641F261
:1009E000883700BFB0688007E9D4FFF789FD401B56
:1009F000B842F7D9FDE600002DE9F047002863D0A2
:100A000042F2000AC4F2020A0446DAF800000D4677
:100A100000F00F0088420CD2DAF8000020F00F003E
:100A20002843CAF80000DAF8000000F00F00A842DE
:100A30004AD1216841F20808C807C4F2020803D16C
:100A4000880740F1D080B5E0606858F8082C02288B
:100A500038D003283CD1920136D5D8F80420D8F8F4
:100A6000043042F20046C3F3031302F00302D8F845
:100A700004700133C0F2F406032A04BF47F64006AF
:100A8000C0F27D16B6FBF3F2D8F80430C7F30627A0
:100A90007A43C3F34163022707EB4303B2FBF3F24C
:100AA0004BF20043C0F2C4439A4259D9D8F800200F
:100AB00012F0F00F49D0890752D5A16800294FD113
:100AC00043E000BF910305D40120BDE8F08700BFDB
:100AD0005105F9D5D8F8001001F00C0104293FD0D8
:100AE000D8F8001001F00C01082939D0D8F800100E
:100AF00001F00C010C2933D1D8F80410D8F80420E7
:100B000042F20047C2F3031201F00301D8F80430A7
:100B10000132C0F2F407032904BF47F64007C0F2D0
:100B20007D17B7FBF2F1D8F80420C3F3062359432D
:100B3000C2F34162022303EB4202B1FBF2F14BF23A
:100B40000042C0F2C44291420AD9D8F800100822EB
:100B500062F307114FF00109C8F8001002E000BF6E
:100B60004FF00009D8F8001021F003010843C8F83D
:100B70000000FFF7C5FC064641F28837D8F80000B0
:100B8000616800F00C00B0EB810F07D0FFF7B8FCF4
:100B9000801BB842F2D90320BDE8F087216888079E
:100BA00008D4B9F1000F1ED0D8F8000020F0F000F2
:100BB00017E000BF480705D5D8F8000040F4E06012
:100BC000C8F80000080706D5D8F80000072262F32D
:100BD0000D20C8F80000D8F80000A26820F0F0004E
:100BE0001043C8F80000DAF8000000F00F00A84237
:100BF0001BD9DAF8000020F00F002843CAF80000E3
:100C0000FFF77EFC064641F2883700BFDAF80000A5
:100C100000F00F00A84207D0FFF772FC801BB8421B
:100C2000F4D90320BDE8F0872168480707D5D8F834
:100C30000000E26820F4E0601043C8F800000807F4
:100C400008D5D8F80000216920F4605040EAC100BE
:100C5000C8F80000D8F8000042F20041C0F2F401E8
:100C600000F00C00042808462DD0D8F8000000F051
:100C70000C00082847F64000C0F27D1023D0D8F8B9
:100C8000002002F00C020C2A1CD1D8F80420D8F85D
:100C9000043002F00302C3F30313D8F804700133E5
:100CA000032A08BF0146B1FBF3F0D8F80410C7F3DC
:100CB0000627C1F341610222784302EB4101B0FBF8
:100CC000F1F000E00020D8F8001042F68412C1F3E1
:100CD0000311C0F60002515C40F20C0201F01F014A
:100CE00020FA01F140F20400C2F200000068C2F2F2
:100CF00000021160BDE8F047FFF726BC40F20C008F
:100D000041F20801C2F20000C4F202010068096861
:100D100042F69412C1F30221C0F60002515C01F0C8
:100D20001F01C8407047000040F20C0041F208016A
:100D3000C2F20000C4F202010068096842F694128F
:100D4000C1F3C221C0F60002515C01F01F01C8408E
:100D50007047000041F20C01C4F2020151F8040C8A
:100D600042F20042C0F2F40200F00C0004281046E7
:100D700008BF704751F8040C00F00C00082847F633
:100D80004000C0F27D1025D051F8043C03F00C0364
:100D90000C2B1CBF0020704780B5D1F800C00B6839
:100DA0000CF0030CC3F3031E0B680EF1010EBCF133
:100DB000030F08BF02460968B2FBFEF0C3F3062327
:100DC000C1F341610222584302EB4101B0FBF1F053
:100DD000BDE8804070470000002804BF0120704734
:100DE0002DE9F04182B00446007841F20006C007C8
:100DF000C4F202061ED1207880073DD42078000777
:100E000064D42078400700F187802078800600F1C4
:100E1000D980E569002D00F04282B06800F00C0036
:100E20000C2840F03181012D40F08E81012002B06C
:100E3000BDE8F081B06800F00C01F068082961D0CD
:100E4000032281F00C0122EA00000844B0FA80F08D
:100E5000400957D161683068B1F5803F07D0B1F5DE
:100E6000A02F40F0E38040F480203060306840F4F0
:100E700080303060E4E000BFB068F16800F00C0042
:100E8000042871D001F0030180F00C0081F0020110
:100E90000844B0FA80F0400966D1E1683068002962
:100EA00000F0E08040F480703060FFF729FB0546D9
:100EB0003068400500F10A81FFF722FB401B022841
:100EC000F6D9032002B0BDE8F08100BF6169D6F811
:100ED0009400002900F0948040F00100C6F89400CE
:100EE000FFF70EFB054600BFD6F8940080073FF5DC
:100EF00088AFFFF705FB401B0228F5D9032002B09D
:100F0000BDE8F081306880037FF575AF6068002828
:100F10007FF471AF3EE000BFB06D5FEAC00808D457
:100F2000B06D40F08050B065B06D00F08050019021
:100F3000019847F20007C4F200073868C0052DD4B5
:100F4000386840F480703860FFF7DAFA054600BF71
:100F50003868C00522D4FFF7D3FA401B0228F7D91E
:100F6000032002B0BDE8F0813068400501D5E0689B
:100F700080B17068216920F0FE4040EA0160706035
:100F800040F20400C2F200000068FFF7DDFA00281A
:100F90003FF434AF012002B0BDE8F081A168D6F87B
:100FA0009000012908D0052940F0AE8040F00400EF
:100FB000C6F89000D6F8900040F00100C6F8900006
:100FC000AEE000BFA169D6F89800002900F0868045
:100FD00040F00100C6F89800FFF792FA054600BFFE
:100FE000D6F8980080073FF514AFFFF789FA401B49
:100FF00002284FF00300F3D902B0BDE8F08100BF32
:1010000020F00100C6F89400FFF77AFA054600BF09
:10101000D6F8940080077FF5F4AEFFF771FA401B15
:101020000228F5D9032002B0BDE8F08120F4803019
:1010300030603068002920F48020306000F0BE80ED
:10104000FFF75EFA054600BF306880033FF5D3AE78
:10105000FFF756FA401B6428F6D9032002B0BDE81A
:10106000F08100BF20F480703060FFF749FA054638
:10107000306840057FF5C2AEFFF742FA401B0228F8
:101080004FF00300F4D9B7E7306820F0807030608B
:10109000FFF736FA022D05460CD100BF30688001FB
:1010A00040F1B880FFF72CFA401B02284FF00300F4
:1010B000F4D9A1E73068800140F1EA80FFF720FA17
:1010C000401B02284FF00300F4D995E770682169AE
:1010D00020F0FE4040EA016070608FE620F00100E1
:1010E000C6F89800FFF70CFA054600BFD6F898003E
:1010F00080077FF58EAEFFF703FA401B02284FF002
:101100000300F3D978E700BF20F00100C6F8900093
:10111000D6F89000002920F00400C6F890005DD0B9
:10112000FFF7EEF9054641F2883700BFD6F8900088
:10113000800765D4FFF7E4F9401BB842F6D90320D5
:1011400002B0BDE8F08100BFF068216A00F0030240
:101150008A427FF41FAF626A6FF00F0300F0F00164
:1011600003EB021291427FF415AFA16A00F4FE4234
:10117000B2EB012F7FF40EAFE16A00F07842B2EBE0
:10118000C16F7FF407AF226B0023CFF6E07303EA51
:10119000025200F4C001A2F5001291427FF4FAAEAF
:1011A000616B4FF07E4202EA016100F0C06001F124
:1011B0007E4188427FF4EEAE71E000BFFFF7A0F9F8
:1011C000054600BF306880037FF515AEFFF798F93C
:1011D000401B64284FF00300F4D90DE7FFF790F9A6
:1011E000054641F2883700BFD6F89000800707D542
:1011F000FFF786F9401BB8424FF00300F4D9FBE635
:10120000B8F1000F3FF501AEB06D20F08050B06531
:10121000FBE500BFF06848F20C01C0F29F1104F139
:10122000200700EA010C8ECF6FF00F00D4E90C54B8
:1012300000EB02100022CFF6E07241EA0C0102EA54
:1012400005520843A2F500124FF07E4540EA032004
:1012500005EA0465104305F17E4540EAC76028436E
:10126000F060306840F080703060F06840F080706E
:10127000F060FFF745F90446306880010FD4FFF7AE
:101280003FF9001B02284FF00300F5D9B4E600BF78
:10129000F0684FF6FC71CFF6EE610840F060002078
:1012A00002B0BDE8F0810000411E0020B0EB116FDC
:1012B0001CBF012070474EF21002CEF200025160B6
:1012C0004EF62351CEF20001F0230B7007219060FF
:1012D00011607047704700007047000070470000C1
:1012E00070470000704700007047000090F83C20F5
:1012F000012A4FF002024AD070B580F83D20026802
:1013000043F2004C54689368C4F2010C42F6004E5C
:101310006245C4F2010E01D0724503D14D6824F438
:1013200070042C434FF68F75CFF6FF550E682C4096
:1013300042F6FF35C4F201053443AA4254600FDC83
:10134000B2F1804F16D040F20046C4F20006B2421D
:1013500010D040F60006C4F20006B2420AD00EE0F9
:10136000724507D044F20006C4F20106B24201D031
:10137000624504D1896823F08003194391600121FB
:10138000002280F83D1080F83C20BDE870401046F7
:101390007047000070470000002804BF012070471C
:1013A00010B5044690F83D0028B9002084F83C00B0
:1013B000204600F023F8022084F83D002068211D1B
:1013C00000F08CFD012084F8480084F83E0084F889
:1013D0003F0084F8400084F8410084F8420084F81B
:1013E000430084F8440084F8450084F8460084F8FB
:1013F000470084F83D00002010BD0000006844F262
:101400000001C4F20101884218BF704780B582B064
:1014100041F26000C4F202000168002241F4803110
:1014200001600068002100F48030019001981820CC
:10143000FFF7DEF8182002B0BDE88040FFF7C6B81D
:1014400090F83D1001291DD1022180F83D1001685E
:1014500042F6FF32C868C4F20102914240F0010036
:10146000C86011DCB1F1804F20D040F20040C4F2DE
:10147000000081421AD040F60000C4F20000814210
:1014800014D020E00120704742F60040C4F2010071
:1014900081420BD044F20000C4F20100814205D029
:1014A00043F20040C4F2010081420CD18868072257
:1014B000C0F201020240062A4FF00000E3D0B2F56C
:1014C000803F08BF7047086840F0010008600020B6
:1014D0007047000090F83C20012A4FF0020200F013
:1014E000AC8080B580F83D20D0F800C08822DCF8C0
:1014F0000830CFF6CE721A40CCF808200B686F2B5C
:1015000010DD1F22C0F21002934237DCB3F5005FFA
:101510006EDA702B00F0B680B3F5805F00F0848047
:10152000D8E000BF2F2B35DD4F2B39DC302B6FD0AF
:10153000402B40F0CF80D1F804E0C968DCF82030BF
:10154000DCF8202022F00102CCF82020DCF8182062
:1015500022F0F00242EA011123F00A0242EA0E02EE
:10156000CCF81810CCF82020DCF808104FF6887260
:10157000CFF6CF721140473154E000BF3F21C0F297
:1015800010018B423ADC2021C0F210018B423FD087
:10159000302139E0E3B3102B3AD0202B38D099E03A
:1015A000502B4DD0602B40F09580D1F804E0C968F5
:1015B000DCF82030DCF8202022F01002CCF82020CB
:1015C000DCF8182022F4704242EA013123F0A00234
:1015D00042EA0E12CCF81810CCF82020DCF80810E3
:1015E0004FF68872CFF6CF72114067311AE000BF14
:1015F0005CD0B3F1101F0BD06CE000BF4021C0F2F3
:1016000010018B4204D07021C0F210018B4261D1D5
:10161000DCF808104FF68872CFF6CF7211401943EC
:1016200041F00701CCF808100022012180F83D109C
:10163000002180F83C10BDE880401046704700BF94
:10164000D1F804E0C968DCF82030DCF8202022F072
:101650000102CCF82020DCF8182022F0F00242EA47
:10166000011123F00A0242EA0E02CCF81810CCF85D
:101670002020DCF808104FF68872CFF6CF721140A8
:101680005731CFE7D1E901E3C968DCF8082043EA24
:101690000E0322F47F4243EA01211143CCF80810E3
:1016A000DCF8081041F07701BCE700BFD1E901E3A5
:1016B000C968DCF8082043EA0E0322F47F4243EABB
:1016C00001211143CCF80810DCF8081041F48041E6
:1016D000A8E700BF0122A8E770470000F0B581B07D
:1016E00004460068C5680669B10717D515F0020100
:1016F00014D06FF002010161012121778069800718
:1017000004D02046FFF7E8FF06E000BF204600F0C7
:10171000CBF8204600F0CAF800202077700719D5D2
:1017200015F0040016D020686FF004010161022159
:101730002177806910F4407F04D02046FFF7CCFF6A
:1017400006E000BF204600F0AFF8204600F0AEF8FB
:1017500000202077300717D515F0080014D0206836
:101760006FF00801016104212177C069800703D06F
:101770002046FFF7B1FF05E0204600F095F820462F
:1017800000F094F800202077F00619D515F010002D
:1017900016D020686FF01001016108212177C0691F
:1017A00010F4407F04D02046FFF796FF06E000BF0C
:1017B000204600F079F8204600F078F800202077E5
:1017C000F00718BF15F0010006D020686FF0010186
:1017D0000161204600F06CF816F4025F05F0800706
:1017E00018BF002F02D1F00509D410E020686FF473
:1017F000025101612046FFF76FFDF00507D537B1B3
:1018000020686FF4807101612046FFF763FD700668
:1018100009D515F0400006D020686FF04001016145
:10182000204600F083F8B00609D515F0200006D058
:1018300020686FF0200101612046FFF74FFDF002A4
:1018400009D515F4801006D020686FF4801101616D
:101850002046FFF747FDB00209D515F4001006D069
:1018600020686FF4001101612046FFF739FD700216
:1018700009D515F4800006D020686FF4800101615D
:101880002046FFF731FD30020CD515F4000009D0D9
:1018900021686FF4000220460A6101B0BDE8F04003
:1018A000FFF778BD01B0F0BD704700007047000041
:1018B0000068D0B380B540F20040C4F600004FF499
:1018C0008071FEF717FE40F2F001C2F200010A78C3
:1018D0000028034618BF0123022A4B70BDE8804050
:1018E00010D0012A08D0002A18BF70470020888035
:1018F00001200870704700BF002814BF022000209C
:101900000870704720B1888801308880704700BF18
:10191000888800223B280A709EBF0120C87070474B
:101920003C281EBF01208870704770477047000038
:1019300090F88410012904BF022070472421C0F8C8
:10194000881001680A680B6822F0005223F0010336
:101950000B60002343660A602021C0F8881080F8DD
:10196000843000207047000090F88420012A04BFD2
:1019700002207047B0B52422C0F888200268D0F851
:1019800064E0D2F800C01368BEF1000F23F0010339
:101990001360936823F0606341EA0301916019D0FA
:1019A0009368916842F6C41E490FC0F6000E42F6D5
:1019B000CC151EF80140C0F60005695CC3F3426314
:1019C000E400B4FBF1F11EF80340EB5CE500B5FB6D
:1019D000F3F301E001210123A0F86A102021A0F80F
:1019E0006830C2F800C0C0F88810002180F8841068
:1019F0000020B0BD90F88420012A04BF0220704767
:101A0000B0B52422C0F888200268D0F864E0D2F88B
:101A100000C01368BEF1000F23F001031360936848
:101A200023F0604341EA0301916019D09368916803
:101A300042F6C41E490FC0F6000E42F6CC151EF841
:101A40000140C0F60005695CC3F34263E400B4FBE7
:101A5000F1F11EF80340EB5CE500B5FBF3F301E0A8
:101A600001210123A0F86A102021A0F86830C2F8F3
:101A700000C0C0F88810002180F884100020B0BD9C
:101A800010B5D0B10446D0F8880028B9002084F8F9
:101A90008400204600F026F82420C4F8880020683E
:101AA000A16A026822F00102026011B1204600F032
:101AB000AFFA204600F0D6FB10B1012010BD00BFE8
:101AC0002168486820F490404860886820F02A0027
:101AD0008860086840F0010220460A60BDE81040B6
:101AE00000F00ABBB0B598B0044602A80025083043
:101AF0003C211795CDE91555CDE91355FEF7C0FBEF
:101B0000206843F60001C4F20101884202D018B0F7
:101B1000B0BD00BF0120CDE9020502A8FEF736FEE8
:101B2000002818BFFEF7F2FB41F24C00C4F202009D
:101B3000416941F480414161416901F48041019171
:101B40000199016841F001010160006813A900F0EA
:101B50000100019001984FF4C0601390022014908E
:101B60000020CDE91500072017904FF09040FEF7B8
:101B7000E7FB18B0B0BD00002DE9F04381B004468A
:101B8000D0F88800202809D100294FF0010018BFA3
:101B9000002A07D101B0BDE8F08300BF022001B0E8
:101BA000BDE8F0830020C4F8900021201D460E46B9
:101BB000C4F888001746FEF7A3FCA4F85470A4F8F4
:101BC0005670A1688146B1F5805F02D12069002876
:101BD00066D037460020B4F856202168002A67D026
:101BE0006A1C28D0002D53D0804600BFC86900066B
:101BF0000AD4FEF785FCA0EB0900A84200F284801D
:101C000021680868F2E700BF17B117F8010B04E07C
:101C100038F8020B00276FF35F208862B4F8560093
:101C20000138A4F85600B4F856000028DED13FE091
:101C3000CA69120609D4CA69120606D4CA6912060C
:101C40005CBFCA695FEA0262F2D51FB117F8012BC7
:101C500005E000BF30F8022B00276FF35F228A6295
:101C6000B4F85620013AA4F85620B4F85620002AB9
:101C7000E1D11DE030F8022B00276FF35F228A626A
:101C8000B4F85620013AA4F85620B4F856207AB198
:101C9000CA69120636D5002FECD017F8012BEEE7F3
:101CA00000273046B4F856202168002A7FF498AF08
:101CB000C86940061ED42DB3681C14D1C8694006FB
:101CC0002AD4C869400627D4C869400624D4C86904
:101CD00040064FF00000F1D50DE000BF206801681C
:101CE000C069400618D4FEF70BFCA0EB0900A8421F
:101CF000F4D909E000202021C4F8881001B0BDE823
:101D0000F08300BFFEF7FCFB03202021C4F88810FD
:101D100001B0BDE8F08300BF00202021C4F8881086
:101D200001B0BDE8F0830000FEE7000080B586B09A
:101D3000002041F24C010590CDE90300CDE90100FE
:101D4000C4F202010A6842F004020A600A6802F062
:101D500004020092009A0A6842F020020A600A68AF
:101D600002F020020092009A0A6842F001020A6022
:101D70000A6802F001020092009A0A6842F0020228
:101D80000A60096801F00201009100994FF4807126
:101D9000CDE90110039040F20040C4F6000001A913
:101DA000FEF7CEFA06B080BD80B588B040F21000D4
:101DB00044F200020021C2F20000C4F2010244F227
:101DC00067234FF0630C0791CDE905110291C0E93B
:101DD0000023C0E9021CC0E904118161FFF7DCFAAD
:101DE000002818BFFEF792FA4FF48050049040F29A
:101DF0001000C2F2000004A9FFF76CFB002818BF16
:101E0000FEF784FA00200190039040F21000C2F225
:101E1000000001A9FFF76AFA002818BFFEF776FA5A
:101E200008B080BD80B540F25C0043F60001C2F20C
:101E30000000C4F2010100234FF00C0C4FF4E1321A
:101E400080E80E00C0E90333C0E905C3C0E90733E9
:101E5000C0E90933FFF714FE002818BFFEF756FA51
:101E600040F25C00C2F200000021FFF7C3FD002831
:101E700018BFFEF74BFA40F25C00C2F200000021EE
:101E8000FFF772FD002818BFFEF740FA40F25C0031
:101E9000C2F20000FFF74CFD002808BF80BDBDE87E
:101EA0008040FEF733BA0000FEE70000FEE70000C6
:101EB0007047000070470000FEF728BB4EF68850C0
:101EC000CEF20000016841F470010160704700002B
:101ED00040F21000C2F20000FFF700BC40F2FF7CAD
:101EE0000268C4F2000C604524DD40F60003C4F231
:101EF0000003984227D043F20043C4F20103984202
:101F000021D042F60043C4F2010398421BD043F2B1
:101F1000FF33C4F2010398421FDC604530DCB0F1AE
:101F2000804F47D040F20043C4F20003984241D0B2
:101F300044E000BFB0F1804F05D040F20043C4F24E
:101F400000039842E3D14B6822F070021A4343F237
:101F5000FF33C4F201039842DFDD44F2FF33C4F2E1
:101F6000010398421ADC43F20043C4F20103984291
:101F700020D044F20003C4F2010398421AD01DE0BD
:101F800040F60003C4F20003984213D042F6004327
:101F9000C4F2010398420DD010E000BF44F60003E4
:101FA000C4F20103984205D044F20043C4F2010395
:101FB000984203D1CB6822F440721A4380B54B6932
:101FC00022F0800E8A6843EA0E03D1F800C0036055
:101FD000C262A0F18042A2F596324FEAB222072AED
:101FE000C0F828C0BDE8804007D8012303FA02F2F8
:101FF00012F0E50F1CBF096901630121416101690C
:10200000C90708BF7047016921F0010101617047EC
:10201000816A0A070CD4CA0715D18A071ED44A0759
:1020200027D4CA0630D48A0639D44A0642D457E0A7
:102030000268D0F838C0536823F4004343EA0C0325
:102040005360CA07E9D00268D0F82CC0536823F463
:10205000003343EA0C0353608A07E0D50268D0F8E6
:1020600030C0536823F4803343EA0C0353604A07BB
:10207000D7D50268D0F834C0536823F4802343EAEC
:102080000C035360CA06CED50268D0F83CC09368F2
:1020900023F4805343EA0C0393608A06C5D5026893
:1020A000D0F840C0936823F4005343EA0C039360D4
:1020B0004A0615D5D0F800C0436CDCF80420B3F50F
:1020C000801F22F4801242EA0302CCF8042007D1D8
:1020D000DCF80420836C22F4C0021A43CCF80420FC
:1020E000090658BF70470168C06C4A6822F4002294
:1020F0001043486070470000B0B582B0044600202D
:10210000C4F89000FEF7FCF9216805460A6812073A
:1021100037D56FF07E4C20464FF4001100222B463D
:10212000CDF800C000F0EAF950B300BF206850E8D5
:10213000000F216820F0800041E80002DAB1206839
:1021400050E8000F216820F0800041E8000292B1C1
:10215000206850E8000F216820F0800041E800026C
:102160004AB1206850E8000F216820F0800041E863
:102170000002002ADAD10320202188226BE000BF70
:102180002168086840075DD56FF07E4C20464FF40B
:10219000800100222B46CDF800C000F0AFF90028E6
:1021A00050D000BF206850E8000F216820F49070E4
:1021B00041E80002BAB3206850E8000F216820F41B
:1021C000907041E8000272B3206850E8000F216867
:1021D00020F4907041E800022AB3206850E8000F14
:1021E000216820F4907041E80002002ADAD11AE058
:1021F000206850E8020F216820F0010041E8020247
:10220000DAB1206850E8020F216820F0010041E8AF
:10221000020292B1206850E8020F216820F001000C
:1022200041E802024AB1206850E8020F216820F01C
:10223000010041E80202002ADAD1032020218C2289
:1022400009E000BF2020C4F88800C4F88C000021F9
:1022500070220020E166A150002184F8841002B0B1
:10226000B0BD000070B5054605F108041ECC00683D
:10227000194341EA0403EE69046846F6F311CCF60B
:10228000FF712140194331430160416848F2000C5D
:1022900021F4405111434160AA69C4F2000C604529
:1022A0001CBF296A0A4381684FF2FF43C1F2FF1342
:1022B000194011438160C16AD5F824E021F00F0173
:1022C00041EA0E01C16244F6FF31C4F200018842C6
:1022D0004FF0100314DD44F60041C4F200018842BF
:1022E00022D0604528D043F60001C4F201018842A3
:1022F00038D141F28801C4F202010B687BA22DE0C3
:1023000044F20041C4F2000188421DD044F60001AD
:10231000C4F20001884225D141F28801C4F20201D1
:1023200009680B0916E000BF41F28801C4F20201FE
:1023300009688B090EE000BF41F28801C4F2020176
:1023400009688B0A06E000BF41F28801C4F202016D
:1023500009688B0842F6B412C0F6000203F00301CC
:1023600052F82130604542F20040C0F2F40015D02E
:10237000B6F5004F22D1082B4FF0010100F2AD80DD
:10238000DFE803F0065C74AB64ABABAB720000BF7C
:10239000FEF7B4FC002840F05D809AE0082B4FF077
:1023A000010100F29A80DFE803F0059825981B9858
:1023B00098982300FEF7A2FCB0B98AE0082B4FF0F2
:1023C000010100F28A80DFE803F0053D6F8849884B
:1023D00088886D00FEF792FC002842D179E000BFAA
:1023E000FEF7B8FC002874D0D5F824E002E000BF66
:1023F0004FF4004042F69C11C0F6000131F81E1067
:102400006A68B0FBF1F002EB420188424FF0010133
:1024100063D31303984260D8010E000210EB520000
:1024200041F100010023FDF7F3FE4FF60052A0F545
:102430004071C0F20F02914249D34DE0FEF774FCA7
:1024400040B946E0FEF770FC58B942E0FEF782FC66
:1024500000283ED0D5F824E008E000BFFEF77AFC63
:10246000B8B3D5F824E01FE04FF4004042F69C11C9
:10247000C0F6000131F81E106A68B0FBF1F0510897
:1024800001EB4000B0FBF2F04FF6EF72A0F110014B
:10249000914221D84FF6F0710140C0F34200084448
:1024A00015E000BF4FF4004042F69C11C0F6000159
:1024B00031F81E104FF6EF72B0FBF1F0696800EBD7
:1024C0005100B0FBF1F0A0F11001914204D829684D
:1024D000C860002101E000BF01214FF00110A86693
:1024E000002208466A67AA6770BD00BF01000000AD
:1024F0000400000002000000080000002DE9F04187
:10250000804600681546C2690E461140891BB1FA23
:1025100081F14909A94223D1069C2CB3611C29D120
:10252000C1693140891BB1FA81F14909A94217D12A
:10253000C1693140891BB1FA81F14909A9420FD122
:10254000C1693140891BB1FA81F14909A94207D11A
:10255000C1693140891BB1FA81F14909A942DFD033
:102560000020BDE8F08100BFFDF7CAFF0320BDE8F1
:10257000F08100BF1F4607E0C0693040801BB0FA01
:1025800080F04009A842EBD1FDF7BAFFC01BA04282
:1025900000F2AE80D8F8000001684907ECD5402E63
:1025A000EAD0802EE8D0C169090700F1A580C16991
:1025B0000905E1D54FF400610162D8F8000050E848
:1025C000000FD8F8001020F4907041E800020AB320
:1025D000D8F8000050E8000FD8F8001020F49070F0
:1025E00041E80002B2B1D8F8000050E8000FD8F876
:1025F000001020F4907041E800025AB1D8F80000B1
:1026000050E8000FD8F8001020F4907041E8000264
:10261000002AD2D14FF6FE70CEF6FF70D8F8001027
:1026200051E8021FD8F80020014042E80213F3B13C
:10263000D8F8001051E8021FD8F80020014042E805
:102640000213A3B1D8F8001051E8021FD8F80020F7
:10265000014042E8021353B1D8F8001051E8021FBC
:10266000D8F80020014042E80213002BD6D1D8F858
:102670006C0001282CD1D8F8000050E8000FD8F8E1
:10268000001020F0100041E800020AB3D8F8000062
:1026900050E8000FD8F8001020F0100041E80002C8
:1026A000B2B1D8F8000050E8000FD8F8001020F0C0
:1026B000100041E800025AB1D8F8000050E8000FBD
:1026C000D8F8001020F0100041E80002002AD2D112
:1026D00020200021C8F88C00C8F86C10C8F87410CD
:1026E000C8F89000032088F88410BDE8F08100BF8E
:1026F0000320BDE8F08100BF08210162D8F8000086
:1027000050E8000FD8F8001020F4907041E8000263
:102710000AB3D8F8000050E8000FD8F8001020F4F1
:10272000907041E80002B2B1D8F8000050E8000F04
:10273000D8F8001020F4907041E800025AB1D8F89F
:10274000000050E8000FD8F8001020F4907041E825
:102750000002002AD2D14FF6FE70CEF6FF70D8F8F4
:10276000001051E8021FD8F80020014042E802138F
:10277000F3B1D8F8001051E8021FD8F8002001404A
:1027800042E80213A3B1D8F8001051E8021FD8F8AC
:102790000020014042E8021353B1D8F8001051E87C
:1027A000021FD8F80020014042E80213002BD6D1C6
:1027B000D8F86C0001282CD1D8F8000050E8000FA0
:1027C000D8F8001020F0100041E800020AB3D8F851
:1027D000000050E8000FD8F8001020F0100041E889
:1027E0000002B2B1D8F8000050E8000FD8F800108D
:1027F00020F0100041E800025AB1D8F8000050E87B
:10280000000FD8F8001020F0100041E80002002A64
:10281000D2D12020C8F88C0000200821C8F86C0014
:10282000C8F87400C8F8901088F884000120BDE84A
:10283000F0810000FEE7000080B582B0019040F218
:102840005C00C2F2000001A901224FF6FF73FFF7FE
:1028500093F9019802B080BD94B0FDF765FE0024A5
:1028600000200C94CDE90A44CDE90844FDF7FCFEB4
:10287000012006904FF480300521079002200F912F
:102880004421CDE9101006210D900325CDE9121049
:1028900006A80E95FEF7A0FA20B1EFF3108072B6ED
:1028A000FEE700BF0F20CDE9010501A80421CDE915
:1028B00003440594FEF7A0F820B1EFF3108072B640
:1028C000FEE700BFFFF732FAFFF76EFAFFF7AAFA4A
:1028D00040F21000C2F20000FEF7B2FD0EA000F0C0
:1028E0003FF840F2F006C2F2000612A400270EA53F
:1028F00003E000BF0A20FDF70FFDF07818B128466D
:1029000000F02EF8F770B0780028F3D0204600F0E1
:1029100027F8B770EEE700BF696E74657272757064
:1029200074206F6B0D0000006B6579307320646F4D
:10293000776E0D006B6579306C20646F776E0D00DB
:1029400002E008C8121F08C1002AFAD17047704778
:10295000002001E001C1121F002AFBD170470000D6
:1029600010B5044601E0FFF767FF14F8010B0449B6
:102970000028F8D1BDE810400A20FFF75DBF000035
:10298000000000200000000000000000010203041D
:10299000060708090000000001020304010002000C
:1029A0000400060008000A000C001000200040008F
:1029B0008000000100000000040000000200000090
:1029C00008000000010101030701000008040204DF
:1029D00008010101F8290008000000201000000093
:1029E00040290008082A000810000020F004000018
:1029F0005029000800000000000000001000000046
:082A0000010000000024F400B5
:04000005080001D915
:00000001FF
